:100000000C9463000C94660C0C94930C0C948B0071
:100010000C948B000C948B000C948B000C948B0034
:100020000C948B000C948B000C948B000C948B0024
:100030000C948B000C948B000C948B000C948B0014
:100040000C94B70A0C948B000C945A0D0C949D0DD3
:100050000C948B000C948B000C948B000C948B00F4
:100060000C948B000C948B00000000070002010030
:100070000003040600000000000000000102040864
:100080001020408001020408102001020408102002
:10009000040404040404040402020202020203032E
:1000A00003030303000000002300260029000000D2
:1000B0000000250028002B0000000000240027007D
:1000C0002A00EA02600E11241FBECFEFD8E0DEBF87
:1000D000CDBF11E0A0E0B1E0E4EAF2E202C0059099
:1000E0000D92A031B107D9F723E0A0E1B1E001C042
:1000F0001D92A335B207E1F710E0C3E6D0E004C0DB
:100100002197FE010E943B11C136D107C9F70E9419
:10011000C30E0C9450110C940000DC01ED91FD9184
:100120008081ED91FD919081ED91FD916C916370D5
:100130008E2309F064609F2309F06860EAEAF0E02A
:10014000E60FF11D659565956D936D917D918D918E
:100150009D91099423C01AC012C016C010C01EC0C1
:1001600009C014C013C006C019C009C00DC007C023
:100170000DC014C062507040804090400BC0615070
:1001800070408040904006C06E5F01C06F5F7F4F3F
:100190008F4F9F4F9E938E937E936E930895809181
:1001A0009A0290919B020C948D00809198029091FC
:1001B00099020C948D00823061F08330B9F4709311
:1001C0009B0260939A0241E050E06FEC70E081E0A6
:1001D00009C0709399026093980241E050E065ED88
:1001E00070E080E00E94460C81E0089580E0089570
:1001F0003F924F925F926F927F928F929F92AF92B7
:10020000BF92CF92DF92EF92FF920F931F93CF9303
:10021000DF93EC01562E442E322E62E0802F0E9496
:100220007B0B62E08E2D0E947B0B802F90E0FC0107
:10023000E057FF4FE491F0E0EE0FFF1FEC55FF4F4A
:100240002591349139832883FC01E458FF4FE491D0
:10025000EC832E2D30E0F901E057FF4FE491F0E000
:10026000EE0FFF1FEC55FF4F859194919B838A837E
:10027000F901E458FF4FE491ED831F821886198637
:100280001A8680ED97E00E940D0BE881F98190813C
:100290008C81982381E009F480E0EA81FB81208150
:1002A0009D81922309F082608E83BE01802F0E947F
:1002B000DB008B87BE018E2D0E94DB002B8590E03A
:1002C000820F911D8B874E018CE0880E911C3E01A0
:1002D000E8E46E0E711CAE014C5A5F4FBE01605BCC
:1002E0007F4F1F921F928DE38F938CE48F938CEC42
:1002F0008F938DEC8F938DECA82E8CECB82ECB2C9D
:100300008DE3D82E1AE9E12E19E9F12E09E11EE359
:100310009301C4010E94850A5E01FCE4AF0EB11C8A
:10032000F50110826E01FDE4CF0ED11CF6011082A2
:100330007E01FEE4EF0EF11CF7011082C45ADF4F7C
:10034000188219821A821B82F30110821182128292
:10035000138261E070E0C4010E94C30900E010E074
:100360002FE733E440E050E06FE773ECC4010E94F4
:10037000FD08F5015082F6014082F701308261E00C
:10038000852D0E947B0B61E0F60180810E947B0B32
:100390000F900F900F900F900F900F9061E0F7016A
:1003A0008081DF91CF911F910F91FF90EF90DF90AF
:1003B000CF90BF90AF909F908F907F906F905F9005
:1003C0004F903F900C947B0BEF92FF921F93CF9333
:1003D000DF93EC01162F7C018CE0E80EF11C60E04D
:1003E00070E0C7010E94C309113051F4FE01E35BC4
:1003F000FF4F60E080810E94B70BC25BDF4F0BC0F4
:10040000123059F4FE01E25BFF4F60E080810E94F0
:10041000B70BC35BDF4F61E00CC0133069F4FE0122
:10042000E35BFF4F60E080810E94B70BC25BDF4F50
:1004300060E088810E94B70B61E070E0C701DF9146
:10044000CF911F91FF90EF900C94C30970E0FC01D5
:10045000E45BFF4F80810C94E70B8F929F92AF92E9
:10046000BF92CF92DF92EF92FF92CF93DF934A0138
:100470005B01EC01C45ADF4F88819981AA81BB815D
:100480009A01AB01281B390B4A0B5B0BA8E5B2E0C4
:100490000E9430110E94EC0F20E030E040EF54E465
:1004A0000E94420F6B017C0188829982AA82BB82E2
:1004B00020E030E0A9010E949C10181624F0C7012A
:1004C000B601905802C0C701B601DF91CF91FF90ED
:1004D000EF90DF90CF90BF90AF909F908F90089556
:1004E0000F931F93CF93DF93EC018B85823028F419
:1004F000F894CE010E948D0001C0F8943F812885B8
:1005000099858A857894FE01E85AFF4F30832183CC
:1005100092838383432F522F692F782F77FF07C051
:1005200070956095509541955F4F6F4F7F4FCE010D
:100530000E942D02FE01E05BFF4F60837183828386
:100540009383CE010C960E94CC068E01015B1F4F57
:10055000F801608170E080E090E00E94EC0FFE0105
:10056000EC5AFF4F20813181428153810E94D10E8C
:100570000E94B40F77FD07C06F3F710529F024F08A
:100580006FEF70E001C060E0F8016083CE01DF91A1
:10059000CF911F910F910C942602CF93DF9340E8E7
:1005A00055E260E070E089EA92E00E94D80D109276
:1005B000120110921301C8E1D1E063E0CE010E9464
:1005C000E401C05ADF4F82E0C839D807B1F7DF91A4
:1005D000CF910895EF920F9384E3E82E04E127E191
:1005E00046E168E088E191E00E94F80095E3E92E99
:1005F00005E129E148E169E088E791E00E94F8001F
:1006000022E3E22E02E12BE14AE16AE088ED91E08B
:100610000E94F80033E3E32E03E12DE14CE16BE0AF
:1006200088E392E00E94F8000F91EF900895CF9236
:10063000DF92EF92FF920F931F93CF93DF930E946D
:10064000010B0091140110911501209116013091B8
:100650001701DC01CB01801B910BA20BB30B84367D
:100660009105A105B10508F48EC30E94010B6093AA
:10067000140170931501809316019093170189EA74
:1006800092E00E94C00C1816190664F489EA92E000
:100690000E94EC0C8093120189EA92E00E94EC0C1B
:1006A000809313018091120190E0609113010097F3
:1006B000A1F4C8E1D1E063E0CE010E94E401FE01B3
:1006C000E85BFF4F1082118212821382C05ADF4F03
:1006D00082E0C839D80779F71DC3C62ED12C8130E6
:1006E0009105E9F4C8E1D1E00D2C000CEE08FF08FB
:1006F00061E0CE010E94E4018E01085B1F4FC7013B
:10070000B6010E94EC0FF8016083718382839383AA
:10071000C05ADF4FF2E0C839DF0751F7FBC2823021
:100720009105E9F4C8E1D1E00D2C000CEE08FF08BA
:1007300062E0CE010E94E4018E01085B1F4FC701F9
:10074000B6010E94EC0FF80160837183828393836A
:10075000C05ADF4FF2E0C839DF0751F7DBC2833000
:10076000910539F462E088E191E00E94E40161E0E2
:1007700027C08430910539F461E088E191E00E945E
:10078000E40162E009C08530910589F462E088E106
:1007900091E00E94E40161E088E791E00E94E401B9
:1007A00061E088ED91E00E94E40162E013C08630D0
:1007B0009105D9F561E088E191E00E94E40162E0F1
:1007C00088E791E00E94E40162E088ED91E00E94F8
:1007D000E40161E088E392E00E94E401B601DD0CEF
:1007E000880B990B0E94EC0F60936001709361017C
:1007F00080936201909363016093C0017093C10183
:100800008093C2019093C3016093200270932102F0
:10081000809322029093230260938002709381025E
:10082000809382029093830275C28730910569F5A7
:1008300010926001109261011092620110926301A6
:10084000B601DD0C880B990B0E94EC0F6093C00180
:100850007093C1018093C2019093C3011092200252
:1008600010922102109222021092230260938002C1
:1008700070938102809382029093830263E088E107
:1008800091E00E94E40161E0F4C08830910569F5CF
:10089000B601DD0C880B990B0E94EC0F6093600190
:1008A0007093610180936201909363011092C00183
:1008B0001092C1011092C2011092C30160932002F4
:1008C000709321028093220290932302109280025F
:1008D00010928102109282021092830261E088E1FC
:1008E00091E00E94E40163E08FC08930910569F5D1
:1008F000B601DD0C880B990B0E94EC0F6093600130
:100900007093610180936201909363011092C00122
:100910001092C1011092C2011092C3016093200293
:1009200070932102809322029093230210928002FE
:1009300010928102109282021092830262E088E19A
:1009400091E00E94E40163E0C9C08A30910569F535
:100950001092600110926101109262011092630185
:10096000B601DD0C880B990B0E94EC0F6093C0015F
:100970007093C1018093C2019093C3011092200231
:1009800010922102109222021092230260938002A0
:1009900070938102809382029093830263E088E1E6
:1009A00091E00E94E40162E0CEC08B30910591F5A8
:1009B0001092600110926101109262011092630125
:1009C000B601DD0C880B990B0E94EC0F6093C001FF
:1009D0007093C1018093C2019093C3016093200280
:1009E000709321028093220290932302109280023E
:1009F00010928102109282021092830263E088E1D9
:100A000091E00E94E40161E088E791E00E94E40146
:100A100061E003C18C30910591F5B601DD0C880BC6
:100A2000990B0E94EC0F60936001709361018093B9
:100A30006201909363011092C0011092C101109263
:100A4000C2011092C3011092200210922102109252
:100A5000220210922302609380027093810280939D
:100A600082029093830261E088E191E00E94E401B8
:100A700063E088E791E00E94E40163E042C18D30C9
:100A8000910591F51092600110926101109262013E
:100A900010926301B601DD0C880B990B0E94EC0FDC
:100AA0006093C0017093C1018093C2019093C30110
:100AB000609320027093210280932202909323027C
:100AC0001092800210928102109282021092830290
:100AD00063E088E191E00E94E40162E088E791E050
:100AE0000E94E40162E099C08E30910591F5B60153
:100AF000DD0C880B990B0E94EC0F609360017093E2
:100B0000610180936201909363011092C001109281
:100B1000C1011092C2011092C301109220021092E2
:100B2000210210922202109223026093800270939D
:100B30008102809382029093830262E088E191E0D7
:100B40000E94E40163E088E791E00E94E40163E031
:100B50009EC08F30910569F5B601DD0C880B990BAD
:100B60000E94EC0F609360017093610180936201B9
:100B7000909363016093C0017093C1018093C2019F
:100B80009093C3011092200210922102109222022F
:100B9000109223021092800210928102109282021F
:100BA0001092830262E088E191E00E94E40161E03A
:100BB0002FC080319105B9F5B601DD0C880B990B7A
:100BC0000E94EC0F60936001709361018093620159
:100BD000909363016093C0017093C1018093C2013F
:100BE0009093C301109220021092210210922202CF
:100BF00010922302109280021092810210928202BF
:100C00001092830261E088E191E00E94E40162E0D9
:100C100088E791E00E94E40163E088ED91E00E94A2
:100C2000E40163E073C081319105B9F51092600170
:100C30001092610110926201109263011092C00142
:100C40001092C1011092C2011092C301B601DD0CD5
:100C5000880B990B0E94EC0F609320027093210285
:100C6000809322029093230260938002709381020A
:100C7000809382029093830263E088E191E00E9476
:100C8000E40163E088E791E00E94E40161E088ED1F
:100C900091E00E94E40162E039C0429709F05FC030
:100CA0001092600110926101109262011092630132
:100CB0001092C0011092C1011092C2011092C301A2
:100CC000B601DD0C880B990B0E94EC0F609320029B
:100CD00070932102809322029093230260938002FA
:100CE00070938102809382029093830263E088E193
:100CF00091E00E94E40163E088E791E00E94E40152
:100D000062E088ED91E00E94E40161E088E392E016
:100D10000E94E40188E191E00E94700288E791E07E
:100D20000E94700288ED91E00E94700288E392E0D8
:100D30000E94700280911001909111010196909390
:100D400011018093100189EA92E0DF91CF911F9108
:100D50000F91FF90EF90DF90CF900C940C0DC8E1B5
:100D6000D1E063E0CE010E94E401FE01E85BFF4FA9
:100D70001082118212821382C05ADF4F82E0C8397A
:100D8000D80779F7C7CFDF91CF911F910F91FF90CF
:100D9000EF90DF90CF9008952F923F924F925F9205
:100DA0006F927F928F929F92AF92BF92CF92DF927B
:100DB000EF92FF920F931F93CF93DF93CDB7DEB7E0
:100DC00060970FB6F894DEBF0FBECDBFDC01DA9698
:100DD000BC91B983B11102C0198227C1988B8F874A
:100DE0000E94010B6E837F8388879987EF85F8893E
:100DF00082A193A1A4A1B5A14E815F816885798567
:100E0000481B590B6A0B7B0B86A597A5A0A9B1A916
:100E1000481759076A077B07F8F2248D358DD901E9
:100E20008D919D910D90BC91A02D8A839B83AC8365
:100E3000BD8300A0F1A1E02D9C01AD016081718115
:100E4000828193810E94D00E4B015C01EF85F8896D
:100E500022A533A544A555A56A817B818C819D81FE
:100E60000E94D00E6B017C01AF85B88950962D9100
:100E70003D914D915C915397C501B4010E94A11021
:100E8000EF85F88926A137A140A551A50E94D10E72
:100E90002B013C01AF85B88996966D937D938D9318
:100EA0009C939997DB96BC91BA87B11118C0EF85D6
:100EB000F8892485358546855785C701B6010E9486
:100EC000A1109B01AC01C301B2010E94D00EAF85FD
:100ED000B88996966D937D938D939C939997EF85A2
:100EE000F88946A057A060A471A416A907A930AC40
:100EF00021AC212F302F432D522DC301B2010E946E
:100F00009C1018162CF4812F902FA32DB22D18C0F1
:100F1000AF85B889D2968D919D910D90BC91A02DF1
:100F20008B879C87AD87BE879C01AD01C301B20151
:100F30000E943D0F87FF0AC08B859C85AD85BE85CD
:100F4000EF85F88986A397A3A0A7B1A7FA85FF2309
:100F500079F0AF85B8891C962D913D914D915C91AA
:100F60001F97C501B4010E94A1104B015C0103C091
:100F7000812C912C5401EF85F88924893589468983
:100F80005789C701B6010E94A1109B01AC01AF8532
:100F9000B88996966D917D918D919C9199970E94BB
:100FA000D00E9B01AC01C501B4010E94D10E6B01B2
:100FB0007C01212F302F432D522D0E949C1018169A
:100FC000A4F0EF85F88912A903A934A825A8212F38
:100FD000302F432D522DB601C7010E943D0F87FDD2
:100FE00004C01C2D0D2D3E2C2F2CAF85B8895E968C
:100FF000ED91FC915F97812F902FA32DB22D8083CF
:101000009183A283B3838A819B81AC81BD81EF856B
:10101000F88982A793A7A4A7B5A78E819F81A885E9
:10102000B98582A393A3A4A3B5A3898160960FB6C3
:10103000F894DEBF0FBECDBFDF91CF911F910F910E
:10104000FF90EF90DF90CF90BF90AF909F908F90E8
:101050007F906F905F904F903F902F9008952F92C8
:101060003F924F925F926F927F928F929F92AF9238
:10107000BF92CF92DF92EF92FF920F931F93CF9385
:10108000DF9300D000D0CDB7DEB71C0149835A836F
:101090006B837C832801390120E030E0A90169815C
:1010A0007A818B819C810E943D0F87FD8FC020E05B
:1010B00030E0A901C301B2010E943D0F87FD86C047
:1010C00020E030E0A901C701B6010E943D0F87FD75
:1010D0007DC0D1015B96BC92AE925A9781E0AA94F2
:1010E000AB2809F080E0F10183AF89819A81AB815F
:1010F000BC8180839183A283B383448255826682BC
:101100007782C086D186E286F38666A577A580A918
:1011100091A90E94EA0F20E030E04AE754E40E94DF
:10112000420F4B015C0189819A81AB81BC81F10145
:1011300084879587A687B787A5019401C301B2016B
:101140000E94A1102B013C01D10150966D937D931B
:101150008D939C935397A5019401C701B6010E94FA
:10116000420F6B017C01F101648B758B868B978B31
:10117000808D918D019751F529813A814B815C8158
:1011800060E070E0CB010E94D00ED1011C966D93FF
:101190007D938D939C931F97A301920160E070E073
:1011A000CB010E94D00EF101608B718B828B938BEF
:1011B000A701960160E070E0CB010E94D00ED10142
:1011C00054966D937D938D939C9357970F900F90AA
:1011D0000F900F90DF91CF911F910F91FF90EF90A3
:1011E000DF90CF90BF90AF909F908F907F906F9047
:1011F0005F904F903F902F9008952F923F924F9283
:101200005F926F927F928F929F92AF92BF92CF9296
:10121000DF92EF92FF920F931F93CF93DF93EC0136
:101220006A017B0148015901A9019801C701B60172
:101230000E949C1087FF4EC0CAAADBAAECAAFDAA96
:101240008EAA9FAAA8AEB9AE8AAD882309F442C07F
:101250002E8C3F8CF1014080518062807380A5010B
:101260009401C301B2010E949C10181634F4F101DC
:1012700080829182A282B3820DC0A7019601C30130
:10128000B2010E943D0F87FF05C0F101C082D182EB
:10129000E282F3828EA09FA0A8A4B9A4CEA8DFA862
:1012A000E8ACF9ACA7019601C501B4010E949C10FD
:1012B000181664F0CAA8DBA8ECA8FDA8A70196013F
:1012C000C501B4010E943D0F87FF04C0CEA2DFA27A
:1012D000E8A6F9A6DF91CF911F910F91FF90EF90B3
:1012E000DF90CF90BF90AF909F908F907F906F9046
:1012F0005F904F903F902F9008958F929F92AF9262
:10130000BF92CF92DF92EF92FF92CF93DF93EC01E7
:10131000EE8DFF8DC080D180E280F380CEA2DFA26F
:10132000E8A6F9A6EC8DFD8D80819181A281B38123
:101330008AA79BA7ACA7BDA78EA89FA8A8ACB9AC4D
:10134000A5019401C701B6010E949C10181664F013
:101350008AA89BA8ACA8BDA8A5019401C701B601A5
:101360000E943D0F87FF04C08EA29FA2A8A6B9A627
:10137000DF91CF91FF90EF90DF90CF90BF90AF9033
:101380009F908F9008951F93CF93DF93EC0111E00E
:101390006130710511F010E006C08AAD811103C003
:1013A000CE010E947D091AAFDF91CF911F91089560
:1013B0000F931F93CF93DF93EC018B018AAD8823AA
:1013C00061F1888D998D6817790739F12C853D85F4
:1013D0004E855F8560E070E0CB010E94D00E6C8787
:1013E0007D878E879F87288939894A895B8960E054
:1013F00070E0CB010E94D00E688B798B8A8B9B8B1F
:101400002C893D894E895F8960E070E0CB010E94A4
:10141000D00E6C8B7D8B8E8B9F8B198F088FDF91FD
:10142000CF911F910F9108954F925F926F927F928B
:101430008F929F92AF92BF92CF92DF92EF92FF92E4
:101440000F931F93CF93DF9300D000D0CDB7DEB7BB
:101450004C0127013801A982BA82CB82DC82FC01CF
:10146000578F468F758F648F31A320A312AE12AAB7
:1014700013AA14AA15AA80E090E0AFE7B3E486AB04
:1014800097ABA0AFB1AF84E690E0A0E0B0E086A754
:1014900097A7A0ABB1AB6D8D7E8DC4010E94D8091A
:1014A000AB8CBC8CCF88D88CE98CFA8C09811A81E2
:1014B0002B813C81B301A201C4010E942F080E942C
:1014C000010BF40106A517A520A931A9DC01CB0168
:1014D000801B910BA20BB30B82A393A3A4A3B5A370
:1014E0000F900F900F900F90DF91CF911F910F9160
:1014F000FF90EF90DF90CF90BF90AF909F908F9034
:101500007F906F905F904F9008958F929F92AF92CF
:10151000BF92CF92DF92EF92FF920F931F93CF93E0
:10152000DF93CDB7DEB7EF85F889A989BA899B88A3
:101530008C888F929F921F92992493949F92BF932D
:10154000AF93FF93EF930E94140A0FB6F894DEBF97
:101550000FBECDBFDF91CF911F910F91FF90EF9004
:10156000DF90CF90BF90AF909F908F9008951F9283
:101570000F920FB60F9211242F933F938F939F9347
:10158000AF93BF9380919D0290919E02A0919F0284
:10159000B091A00230919C0223E0230F2D3720F45C
:1015A0000196A11DB11D05C026E8230F0296A11DBD
:1015B000B11D20939C0280939D0290939E02A09364
:1015C0009F02B093A0028091A1029091A202A091EB
:1015D000A302B091A4020196A11DB11D8093A102A6
:1015E0009093A202A093A302B093A402BF91AF91E3
:1015F0009F918F913F912F910F900FBE0F901F9051
:1016000018952FB7F89460919D0270919E02809179
:101610009F029091A0022FBF0895019739F0880F83
:10162000991F880F991F02970197F1F708957894F1
:1016300084B5826084BD84B5816084BD85B58260D7
:1016400085BD85B5816085BDEEE6F0E08081816075
:101650008083E1E8F0E01082808182608083808175
:1016600081608083E0E8F0E0808181608083E1EB4D
:10167000F0E0808184608083E0EBF0E08081816035
:101680008083EAE7F0E080818460808380818260EB
:1016900080838081816080838081806880831092D4
:1016A000C1000895833081F028F4813099F08230B0
:1016B000A1F008958630A9F08730B9F08430D1F4D4
:1016C000809180008F7D03C0809180008F77809310
:1016D0008000089584B58F7702C084B58F7D84BD66
:1016E00008958091B0008F7703C08091B0008F7D06
:1016F0008093B0000895CF93DF9390E0FC01E4580D
:10170000FF4F2491FC01E057FF4F8491882361F142
:1017100090E0880F991FFC01E854FF4FC591D491C8
:10172000FC01E255FF4FA591B491611109C09FB72B
:10173000F8948881209582238883EC912E230BC016
:10174000623061F49FB7F8943881822F80958323AB
:101750008883EC912E2B2C939FBF06C08FB7F894F3
:10176000E8812E2B28838FBFDF91CF9108951F939F
:10177000CF93DF93282F30E0F901E859FF4F849190
:10178000F901E458FF4FD491F901E057FF4FC4919C
:10179000CC23C9F0162F81110E94520BEC2FF0E0E0
:1017A000EE0FFF1FE255FF4FA591B4918FB7F8944C
:1017B000111105C09C91ED2FE095E92302C0EC9139
:1017C000ED2BEC938FBFDF91CF911F9108951F9365
:1017D000CF93DF93182FEB0161E00E947B0B2097E2
:1017E00011F460E004C0CF3FD10539F461E0812FEE
:1017F000DF91CF911F910C94B70BE12FF0E0E859E6
:10180000FF4FE491E330F9F048F4E130B9F0E23011
:10181000A1F584B5806284BDC8BD34C0E630E9F06E
:10182000E73019F1E43049F58091800080628093BF
:101830008000D0938B00C0938A0024C084B5806858
:1018400084BDC7BD1FC080918000806880938000E8
:10185000D0938900C093880015C08091B000806843
:101860008093B000C093B3000DC08091B00080623F
:101870008093B000C093B40005C0C038D1050CF00F
:10188000B5CFAFCFDF91CF911F9108958230E8F4AB
:10189000E82FF0E0EE0FFF1FEB55FD4F71836083E3
:1018A000813041F0809169008C7F482B4093690022
:1018B000E89A089580916900440F551F440F551F01
:1018C000837F482B40936900E99A08951F920F92F5
:1018D0000FB60F9211242F933F934F935F936F9303
:1018E0007F938F939F93AF93BF93EF93FF938091D9
:1018F000A5029091A602892B29F0E091A502F09112
:10190000A6020995FF91EF91BF91AF919F918F91A1
:101910007F916F915F914F913F912F910F900FBEEB
:101920000F901F9018951F920F920FB60F921124CF
:101930002F933F934F935F936F937F938F939F93D7
:10194000AF93BF93EF93FF938091A7029091A8026A
:10195000892B29F0E091A702F091A8020995FF9147
:10196000EF91BF91AF919F918F917F916F915F9117
:101970004F913F912F910F900FBE0F901F90189590
:10198000FC0124853585F901E05CFF4F8081918160
:10199000329620813181821B930B8F739927089592
:1019A000DC011C96ED91FC911D97DF01A05CBF4FFF
:1019B0002D913C91119712968D919C91119728171A
:1019C000390739F08D919C91E80FF91F808190E0E3
:1019D00008958FEF9FEF0895FC01A485B585FD0163
:1019E000E05CFF4F20813181329680819181281700
:1019F000390779F080819181A80FB91F8C912081DE
:101A000031812F5F3F4F2F7333273183208390E045
:101A100008958FEF9FEF0895FC0181A1882329F09D
:101A2000A489B5898C9186FFFBCF11A208950F93ED
:101A30001F93CF93DF93FC01A685B7858D01005CD2
:101A40001F4FE8018881998101968F739927AD0115
:101A50004E5B5F4FEA012881398182179307D1F3EA
:101A6000E80128813981A20FB31F6C93A685B78541
:101A7000A05CBF4F11969C938E93A689B7892C9139
:101A800081E090E0078C02C0880F991F0A94E2F76A
:101A9000822B8C9381E081A30488F589E02D8081DD
:101AA0008064808381E090E0DF91CF911F910F915E
:101AB000089508951F920F920FB60F9211242F933D
:101AC0004F935F938F939F93EF93FF938091C00009
:101AD00082FD1CC02091C60080914F03909150035D
:101AE00001968F73992740915103509152038417A7
:101AF000950771F0E0914F03F0915003E15FFC4FC7
:101B000020839093500380934F0302C08091C600BE
:101B1000FF91EF919F918F915F914F912F910F9036
:101B20000FBE0F901F90189589EA92E00E94C00C9A
:101B3000892B11F00C94590D08951F920F920FB636
:101B40000F9211242F933F938F939F93EF93FF93C3
:101B500020910B0330910C0380910D0390910E03A3
:101B60002817390731F48091C1008F7D8093C1001F
:101B700014C0E0910D03F0910E03E553FD4F208159
:101B800080910D0390910E0301968F739927909386
:101B90000E0380930D032093C600FF91EF919F9158
:101BA0008F913F912F910F900FBE0F901F9018951E
:101BB000CF92DF92EF92FF920F931F93CF93DF9319
:101BC000EC016A017B014115514E6105710509F176
:101BD000EC89FD8981E090E008A002C0880F991F80
:101BE0000A94E2F7808360E079E08DE390E0A7015A
:101BF00096010E940E1189019A01015011092109D3
:101C000031093695279517950795980101151041CB
:101C1000A8F0EC89FD89108260E874E88EE190E01C
:101C2000A70196010E940E11DA01C9010197A109CD
:101C3000B109B695A795979587959C01E889F9898B
:101C40003083EA89FB89208319A2EE89FF894081CC
:101C500081E090E09C010C8C02C0220F331F0A949B
:101C6000E2F7242B2083EE89FF8940819C010D8CB3
:101C700002C0220F331F0A94E2F7242B2083EE893F
:101C8000FF8940819C010E8C02C0220F331F0A94F1
:101C9000E2F7242B2083EE89FF8920810F8C02C07C
:101CA000880F991F0A94E2F7809582238083DF9141
:101CB000CF911F910F91FF90EF90DF90CF900895FB
:101CC000E9EAF2E01382128288EE93E0A0E0B0E04D
:101CD00084839583A683B78384E091E09183808396
:101CE0008FE093E0958784878BEC92E097878687D7
:101CF00085EC90E0918B808B84EC90E0938B828BD1
:101D000080EC90E0958B848B81EC90E0978B868BB8
:101D100082EC90E0918F808F86EC90E0938F828FA1
:101D200084E0848F83E0858F87E0868F85E0878FCE
:101D300081E080A30895CF92DF92EF92FF920F93FC
:101D40001F93CF93DF936C01EB017B01E40EF51E33
:101D500000E010E0CE15DF0561F06991D601ED914C
:101D6000FC910190F081E02DC6010995080F191F23
:101D7000F1CFC801DF91CF911F910F91FF90EF90AC
:101D8000DF90CF9008950E94170B0E94CD02C4E906
:101D9000DDE00E9417032097E1F30E94940DF9CF34
:101DA0005058BB27AA270E94E80E0C9462100E948C
:101DB000541038F00E945B1020F039F49F3F19F462
:101DC00026F40C9451100EF4E095E7FB0C944B10A4
:101DD000E92F0E94731058F3BA176207730784073C
:101DE000950720F079F4A6F50C9495100EF4E09583
:101DF0000B2EBA2FA02D0B01B90190010C01CA01C5
:101E0000A0011124FF27591B99F0593F50F4503E6F
:101E100068F11A16F040A22F232F342F4427585F61
:101E2000F3CF469537952795A795F0405395C9F779
:101E30007EF41F16BA0B620B730B840BBAF0915031
:101E4000A1F0FF0FBB1F661F771F881FC2F70EC0D0
:101E5000BA0F621F731F841F48F4879577956795A3
:101E6000B795F7959E3F08F0B0CF9395880F08F08F
:101E70009927EE0F9795879508950E94271008F4EB
:101E800081E008950E94560F0C9462100E945B102E
:101E900058F00E94541040F029F45F3F29F00C9450
:101EA0004B1051110C9496100C9451100E94731009
:101EB00068F39923B1F3552391F3951B550BBB2779
:101EC000AA2762177307840738F09F5F5F4F220FBE
:101ED000331F441FAA1FA9F335D00E2E3AF0E0E8B5
:101EE00032D091505040E695001CCAF72BD0FE2FFF
:101EF00029D0660F771F881FBB1F26173707480793
:101F0000AB07B0E809F0BB0B802DBF01FF2793584A
:101F10005F4F3AF09E3F510578F00C944B100C94B3
:101F200096105F3FE4F3983ED4F3869577956795D6
:101F3000B795F7959F5FC9F7880F911D969587957F
:101F400097F90895E1E0660F771F881FBB1F62179E
:101F500073078407BA0720F0621B730B840BBA0B5C
:101F6000EE1F88F7E09508950E94BB0F6894B111A9
:101F70000C94961008950E947B1088F09F5798F05B
:101F8000B92F9927B751B0F0E1F0660F771F881F7E
:101F9000991F1AF0BA95C9F714C0B13091F00E9498
:101FA0009510B1E008950C949510672F782F88272D
:101FB000B85F39F0B93FCCF3869577956795B395BF
:101FC000D9F73EF490958095709561957F4F8F4F2E
:101FD0009F4F0895E89409C097FB3EF49095809533
:101FE000709561957F4F8F4F9F4F9923A9F0F92FDF
:101FF00096E9BB279395F695879577956795B7955D
:10200000F111F8CFFAF4BB0F11F460FF1BC06F5F42
:102010007F4F8F4F9F4F16C0882311F096E911C054
:10202000772321F09EE8872F762F05C0662371F075
:1020300096E8862F70E060E02AF09A95660F771F89
:10204000881FDAF7880F9695879597F90895990F65
:102050000008550FAA0BE0E8FEEF16161706E80772
:10206000F907C0F012161306E407F50798F0621B93
:10207000730B840B950B39F40A2661F0232B242B68
:10208000252B21F408950A2609F4A140A6958FEF87
:10209000811D811D089597F99F6780E870E060E0D9
:1020A00008959FEF80EC089500240A9416161706F1
:1020B00018060906089500240A9412161306140639
:1020C00005060895092E0394000C11F4882352F09C
:1020D000BB0F40F4BF2B11F460FF04C06F5F7F4F54
:1020E0008F4F9F4F089557FD9058440F551F59F03B
:1020F0005F3F71F04795880F97FB991F61F09F3FF5
:1021000079F087950895121613061406551FF2CF1D
:102110004695F1DF08C0161617061806991FF1CF6D
:1021200086957105610508940895E894BB27662794
:102130007727CB0197F908950E94271008F48FEFB5
:1021400008950E94B4100C9462100E94541038F04C
:102150000E945B1020F0952311F00C944B100C940E
:10216000511011240C9496100E94731070F3959FD7
:10217000C1F3950F50E0551F629FF001729FBB277E
:10218000F00DB11D639FAA27F00DB11DAA1F649F1A
:102190006627B00DA11D661F829F2227B00DA11DCD
:1021A000621F739FB00DA11D621F839FA00D611D53
:1021B000221F749F3327A00D611D231F849F600D74
:1021C000211D822F762F6A2F11249F5750409AF09D
:1021D000F1F088234AF0EE0FFF1FBB1F661F771F29
:1021E000881F91505040A9F79E3F510580F00C94F4
:1021F0004B100C9496105F3FE4F3983ED4F3869511
:1022000077956795B795F795E7959F5FC1F7FE2B93
:10221000880F911D9695879597F90895A1E21A2E3A
:10222000AA1BBB1BFD010DC0AA1FBB1FEE1FFF1F7A
:10223000A217B307E407F50720F0A21BB30BE40BCA
:10224000F50B661F771F881F991F1A9469F7609511
:102250007095809590959B01AC01BD01CF010895CB
:102260000E944111A59F900DB49F900DA49F800DD9
:10227000911D11240895EE0FFF1F0590F491E02D9C
:102280000994A29FB001B39FC001A39F700D811D4F
:102290001124911DB29F700D811D1124911D08956F
:0422A000F894FFCFE0
:1022A40000000000170D9B0EC00CEC0CD00C0C0DA4
:00000001FF
